{
  "contractName": "StateMachine",
  "abi": [
    {
      "inputs": [
        {
          "internalType": "uint256",
          "name": "_amount",
          "type": "uint256"
        },
        {
          "internalType": "uint256",
          "name": "_interest",
          "type": "uint256"
        },
        {
          "internalType": "uint256",
          "name": "_duration",
          "type": "uint256"
        },
        {
          "internalType": "address payable",
          "name": "_borrower",
          "type": "address"
        },
        {
          "internalType": "address payable",
          "name": "_lender",
          "type": "address"
        }
      ],
      "stateMutability": "nonpayable",
      "type": "constructor"
    },
    {
      "inputs": [],
      "name": "amount",
      "outputs": [
        {
          "internalType": "uint256",
          "name": "",
          "type": "uint256"
        }
      ],
      "stateMutability": "view",
      "type": "function",
      "constant": true
    },
    {
      "inputs": [],
      "name": "borrower",
      "outputs": [
        {
          "internalType": "address payable",
          "name": "",
          "type": "address"
        }
      ],
      "stateMutability": "view",
      "type": "function",
      "constant": true
    },
    {
      "inputs": [],
      "name": "duration",
      "outputs": [
        {
          "internalType": "uint256",
          "name": "",
          "type": "uint256"
        }
      ],
      "stateMutability": "view",
      "type": "function",
      "constant": true
    },
    {
      "inputs": [],
      "name": "end",
      "outputs": [
        {
          "internalType": "uint256",
          "name": "",
          "type": "uint256"
        }
      ],
      "stateMutability": "view",
      "type": "function",
      "constant": true
    },
    {
      "inputs": [],
      "name": "interest",
      "outputs": [
        {
          "internalType": "uint256",
          "name": "",
          "type": "uint256"
        }
      ],
      "stateMutability": "view",
      "type": "function",
      "constant": true
    },
    {
      "inputs": [],
      "name": "lender",
      "outputs": [
        {
          "internalType": "address payable",
          "name": "",
          "type": "address"
        }
      ],
      "stateMutability": "view",
      "type": "function",
      "constant": true
    },
    {
      "inputs": [],
      "name": "state",
      "outputs": [
        {
          "internalType": "enum StateMachine.State",
          "name": "",
          "type": "uint8"
        }
      ],
      "stateMutability": "view",
      "type": "function",
      "constant": true
    },
    {
      "inputs": [],
      "name": "fund",
      "outputs": [],
      "stateMutability": "payable",
      "type": "function",
      "payable": true
    },
    {
      "inputs": [],
      "name": "reimburse",
      "outputs": [],
      "stateMutability": "payable",
      "type": "function",
      "payable": true
    }
  ],
  "bytecode": "0x608060405260008060006101000a81548160ff0219169083600281111562000050577f4e487b7100000000000000000000000000000000000000000000000000000000600052602160045260246000fd5b02179055503480156200006257600080fd5b50604051620011f0380380620011f0833981810160405281019062000088919062000158565b84600181905550836002819055508260048190555081600560006101000a81548173ffffffffffffffffffffffffffffffffffffffff021916908373ffffffffffffffffffffffffffffffffffffffff16021790555080600660006101000a81548173ffffffffffffffffffffffffffffffffffffffff021916908373ffffffffffffffffffffffffffffffffffffffff16021790555050505050506200024c565b6000815190506200013b8162000218565b92915050565b600081519050620001528162000232565b92915050565b600080600080600060a086880312156200017157600080fd5b6000620001818882890162000141565b9550506020620001948882890162000141565b9450506040620001a78882890162000141565b9350506060620001ba888289016200012a565b9250506080620001cd888289016200012a565b9150509295509295909350565b6000620001e782620001ee565b9050919050565b600073ffffffffffffffffffffffffffffffffffffffff82169050919050565b6000819050919050565b6200022381620001da565b81146200022f57600080fd5b50565b6200023d816200020e565b81146200024957600080fd5b50565b610f94806200025c6000396000f3fe6080604052600436106100865760003560e01c8063bcead63e11610059578063bcead63e14610116578063c19d93fb14610141578063c392f7661461016c578063d3927c1514610197578063efbe1c1c146101a157610086565b80630fb5a6b41461008b5780637df1f1b9146100b6578063aa8c217c146100e1578063b60d42881461010c575b600080fd5b34801561009757600080fd5b506100a06101cc565b6040516100ad9190610e09565b60405180910390f35b3480156100c257600080fd5b506100cb6101d2565b6040516100d89190610cb3565b60405180910390f35b3480156100ed57600080fd5b506100f66101f8565b6040516101039190610e09565b60405180910390f35b6101146101fe565b005b34801561012257600080fd5b5061012b610349565b6040516101389190610cb3565b60405180910390f35b34801561014d57600080fd5b5061015661036f565b6040516101639190610cce565b60405180910390f35b34801561017857600080fd5b50610181610380565b60405161018e9190610e09565b60405180910390f35b61019f610386565b005b3480156101ad57600080fd5b506101b66104eb565b6040516101c39190610e09565b60405180910390f35b60045481565b600560009054906101000a900473ffffffffffffffffffffffffffffffffffffffff1681565b60015481565b600660009054906101000a900473ffffffffffffffffffffffffffffffffffffffff1673ffffffffffffffffffffffffffffffffffffffff163373ffffffffffffffffffffffffffffffffffffffff161461028e576040517f08c379a000000000000000000000000000000000000000000000000000000000815260040161028590610d89565b60405180910390fd5b60015447146102d2576040517f08c379a00000000000000000000000000000000000000000000000000000000081526004016102c990610ce9565b60405180910390fd5b6102dc60016104f1565b600560009054906101000a900473ffffffffffffffffffffffffffffffffffffffff1673ffffffffffffffffffffffffffffffffffffffff166108fc6001549081150290604051600060405180830381858888f19350505050158015610346573d6000803e3d6000fd5b50565b600660009054906101000a900473ffffffffffffffffffffffffffffffffffffffff1681565b60008054906101000a900460ff1681565b60025481565b600560009054906101000a900473ffffffffffffffffffffffffffffffffffffffff1673ffffffffffffffffffffffffffffffffffffffff163373ffffffffffffffffffffffffffffffffffffffff1614610416576040517f08c379a000000000000000000000000000000000000000000000000000000000815260040161040d90610d69565b60405180910390fd5b6002546001546104269190610e35565b3414610467576040517f08c379a000000000000000000000000000000000000000000000000000000000815260040161045e90610da9565b60405180910390fd5b61047160026104f1565b600660009054906101000a900473ffffffffffffffffffffffffffffffffffffffff1673ffffffffffffffffffffffffffffffffffffffff166108fc6002546001546104bd9190610e35565b9081150290604051600060405180830381858888f193505050501580156104e8573d6000803e3d6000fd5b50565b60035481565b6000600281111561052b577f4e487b7100000000000000000000000000000000000000000000000000000000600052602160045260246000fd5b816002811115610564577f4e487b7100000000000000000000000000000000000000000000000000000000600052602160045260246000fd5b14156105a5576040517f08c379a000000000000000000000000000000000000000000000000000000000815260040161059c90610d09565b60405180910390fd5b60008054906101000a900460ff1660028111156105eb577f4e487b7100000000000000000000000000000000000000000000000000000000600052602160045260246000fd5b816002811115610624577f4e487b7100000000000000000000000000000000000000000000000000000000600052602160045260246000fd5b1415610665576040517f08c379a000000000000000000000000000000000000000000000000000000000815260040161065c90610dc9565b60405180910390fd5b6001600281111561069f577f4e487b7100000000000000000000000000000000000000000000000000000000600052602160045260246000fd5b8160028111156106d8577f4e487b7100000000000000000000000000000000000000000000000000000000600052602160045260246000fd5b14156108035760006002811115610718577f4e487b7100000000000000000000000000000000000000000000000000000000600052602160045260246000fd5b60008054906101000a900460ff16600281111561075e577f4e487b7100000000000000000000000000000000000000000000000000000000600052602160045260246000fd5b1461079e576040517f08c379a000000000000000000000000000000000000000000000000000000000815260040161079590610d29565b60405180910390fd5b60016000806101000a81548160ff021916908360028111156107e9577f4e487b7100000000000000000000000000000000000000000000000000000000600052602160045260246000fd5b0217905550600454426107fc9190610e35565b6003819055505b60028081111561083c577f4e487b7100000000000000000000000000000000000000000000000000000000600052602160045260246000fd5b816002811115610875577f4e487b7100000000000000000000000000000000000000000000000000000000600052602160045260246000fd5b14156109d157600160028111156108b5577f4e487b7100000000000000000000000000000000000000000000000000000000600052602160045260246000fd5b60008054906101000a900460ff1660028111156108fb577f4e487b7100000000000000000000000000000000000000000000000000000000600052602160045260246000fd5b1461093b576040517f08c379a000000000000000000000000000000000000000000000000000000000815260040161093290610de9565b60405180910390fd5b600354421015610980576040517f08c379a000000000000000000000000000000000000000000000000000000000815260040161097790610d49565b60405180910390fd5b60026000806101000a81548160ff021916908360028111156109cb577f4e487b7100000000000000000000000000000000000000000000000000000000600052602160045260246000fd5b02179055505b50565b6109dd81610e8b565b82525050565b6109ec81610eda565b82525050565b60006109ff601e83610e24565b91507f63616e206f6e6c79206c656e642074686520657861637420616d6f756e7400006000830152602082019050919050565b6000610a3f601983610e24565b91507f63616e6e6f7420676f206261636b20746f2070656e64696e67000000000000006000830152602082019050919050565b6000610a7f602583610e24565b91507f63616e6e6f74206f6e6c7920676f20746f206163746976652066726f6d20706560008301527f6e64696e670000000000000000000000000000000000000000000000000000006020830152604082019050919050565b6000610ae5601683610e24565b91507f6c6f616e206861736e74206d61747572656420796574000000000000000000006000830152602082019050919050565b6000610b25601b83610e24565b91507f6f6e6c7920626f72726f7765722063616e207265696d627572736500000000006000830152602082019050919050565b6000610b65601483610e24565b91507f6f6e6c79206c656e6465722063616e206c656e640000000000000000000000006000830152602082019050919050565b6000610ba5603483610e24565b91507f626f72726f776572206e65656420746f207265696d627572736520657861637460008301527f6c7920616d6f756e74202b20696e7465726573740000000000000000000000006020830152604082019050919050565b6000610c0b601f83610e24565b91507f63616e6e6f74207472616e736974696f6e20746f2073616d65207374617465006000830152602082019050919050565b6000610c4b602483610e24565b91507f63616e6e6f74206f6e6c7920676f20746f20636c6f7365642066726f6d20616360008301527f74697665000000000000000000000000000000000000000000000000000000006020830152604082019050919050565b610cad81610ed0565b82525050565b6000602082019050610cc860008301846109d4565b92915050565b6000602082019050610ce360008301846109e3565b92915050565b60006020820190508181036000830152610d02816109f2565b9050919050565b60006020820190508181036000830152610d2281610a32565b9050919050565b60006020820190508181036000830152610d4281610a72565b9050919050565b60006020820190508181036000830152610d6281610ad8565b9050919050565b60006020820190508181036000830152610d8281610b18565b9050919050565b60006020820190508181036000830152610da281610b58565b9050919050565b60006020820190508181036000830152610dc281610b98565b9050919050565b60006020820190508181036000830152610de281610bfe565b9050919050565b60006020820190508181036000830152610e0281610c3e565b9050919050565b6000602082019050610e1e6000830184610ca4565b92915050565b600082825260208201905092915050565b6000610e4082610ed0565b9150610e4b83610ed0565b9250827fffffffffffffffffffffffffffffffffffffffffffffffffffffffffffffffff03821115610e8057610e7f610eec565b5b828201905092915050565b6000610e9682610eb0565b9050919050565b6000819050610eab82610f4a565b919050565b600073ffffffffffffffffffffffffffffffffffffffff82169050919050565b6000819050919050565b6000610ee582610e9d565b9050919050565b7f4e487b7100000000000000000000000000000000000000000000000000000000600052601160045260246000fd5b7f4e487b7100000000000000000000000000000000000000000000000000000000600052602160045260246000fd5b60038110610f5b57610f5a610f1b565b5b5056fea264697066735822122019de3bea50209c58ab2c35bc8816184b581dc00d91b801d47ced842a9ee8a80964736f6c63430008000033",
  "immutableReferences": {},
  "source": "pragma solidity ^0.8.0;\r\n\r\ncontract StateMachine {\r\n    enum State {\r\n        PENDING,\r\n        ACTIVE,\r\n        CLOSED\r\n    }\r\n    State public state = State.PENDING;\r\n    uint public amount;\r\n    uint public interest;\r\n    uint public end;\r\n    uint public duration;\r\n    address payable public borrower;\r\n    address payable public lender;\r\n    \r\n    constructor(\r\n        uint _amount,\r\n        uint _interest,\r\n        uint _duration,\r\n        address payable _borrower,\r\n        address payable _lender\r\n        ) {\r\n        amount = _amount;\r\n        interest = _interest;\r\n        duration = _duration;\r\n        borrower = _borrower;\r\n        lender = _lender;\r\n    }\r\n    \r\n    function fund() payable external {\r\n        require(msg.sender == lender, 'only lender can lend');\r\n        require(address(this).balance == amount, 'can only lend the exact amount');\r\n        _transitionTo(State.ACTIVE);\r\n        borrower.transfer(amount);\r\n    }\r\n    \r\n    function reimburse() payable external {\r\n        require(msg.sender == borrower, 'only borrower can reimburse');\r\n        require(msg.value == amount + interest, 'borrower need to reimburse exactly amount + interest');\r\n        _transitionTo(State.CLOSED);\r\n        lender.transfer(amount + interest);\r\n    }\r\n\r\n    function _transitionTo(State to) internal {\r\n      require(to != State.PENDING, 'cannot go back to pending');\r\n      require(to != state, 'cannot transition to same state');\r\n      if(to == State.ACTIVE) {\r\n        require(state == State.PENDING, 'cannot only go to active from pending');\r\n        state = State.ACTIVE;\r\n        end = block.timestamp + duration;\r\n      }\r\n      if(to == State.CLOSED) {\r\n        require(state == State.ACTIVE, 'cannot only go to closed from active');\r\n        require(block.timestamp >= end, 'loan hasnt matured yet');\r\n        state = State.CLOSED;\r\n      }\r\n    }\r\n}\r\n",
  "sourcePath": "C:/Users/Usuario/Desktop/Proyectos/loan-state-machine/contracts/StateMachine.sol",
  "compiler": {
    "name": "solc",
    "version": "0.8.0+commit.c7dfd78e.Emscripten.clang"
  },
  "schemaVersion": "3.4.1",
  "updatedAt": "2021-07-17T23:20:24.357Z",
  "networkType": "ethereum",
  "devdoc": {
    "kind": "dev",
    "methods": {},
    "version": 1
  },
  "userdoc": {
    "kind": "user",
    "methods": {},
    "version": 1
  }
}